:101E000001C0E5C0112484B7882361F0982F9A702F
:101E1000923041F081FF02C097EF94BF282E80E0FE
:101E2000C1D0EEC085E08093810082E08093C00045
:101E300088E18093C10086E08093C20080E18093B6
:101E4000C4008EE0AFD0399A86E020E33CEF91E009
:101E5000309385002093840096BBB09BFECF319ACF
:101E6000A8954091C00047FD02C0815089F793E0DA
:101E7000E92EDD24D39425E0C22E31E1B32E86D0A5
:101E8000813471F483D0182F93D081E0123821F07F
:101E900088E0113809F083E072D080E170D0EFCF94
:101EA000823419F484E18CD0F8CF853411F485E0C4
:101EB000FACF853541F46AD0C82F68D0D82FCC0F1F
:101EC000DD1F76D0EACF863521F484E079D080E03A
:101ED000E3CF843609F034C059D058D0F82E56D00C
:101EE000A82E00E011E048018FEF881A980A4ED022
:101EF000F80180838401F810F6CF5AD0F5E4AF12D0
:101F000001C0FFCFFE01E7BEE89507B600FCFDCF9C
:101F1000FE01A0E0B1E0CD0102962D913C910901B6
:101F2000D7BEE89511243296DC01F812F4CFFE01F9
:101F3000C7BEE89507B600FCFDCFB7BEE895ADCFAC
:101F4000843771F423D022D0F82E20D031D08E01E6
:101F5000F80185918F0113D0FA94F110F9CF9DCF3C
:101F6000853739F425D08EE10AD083E908D08FE097
:101F700093CF813509F0A5CF88E014D0A2CF9091FE
:101F8000C00095FFFCCF8093C60008958091C000EB
:101F900087FFFCCF8091C00084FD01C0A89580918F
:101FA000C6000895E0E6F0E098E19083808308950C
:101FB000EDDF803219F088E0F5DFFFCF84E1DFCF7D
:101FC000CF93C82FE3DFC150E9F7CF91F1CFFC01E8
:101FD0000A0167BFE895112407B600FCFDCF6670C3
:0E1FE00029F0452B19F481E187BFE89508959B
:021FFE000108D8
:0400000300001E00DB
:00000001FF
